:020000040000FA
:0400000007EF00F016
:100008005F823FED0EF0FCEF13F0600ED36E10EC44
:100018001AF0BEEC19F022EC17F0BCEC15F0F1EC7C
:1000280014F00001EB6F000EEB6FFC0E85EC18F07E
:1000380061C0F2F062C0F3F0FE0E85EC18F061C00A
:10004800F0F062C0F1F081B22CEF00F02EEF00F07A
:100058003BEF00F0FC0E0001956F180E946F000E38
:10006800976F000E966FCEEC11F046EF00F0000E81
:100078000001956F050E946F000E976F000E966F36
:10008800CEEC11F081B04BEF00F04DEF00F05AEFDD
:1000980000F0000E0001956F000E946FFC0E976F34
:1000A800180E966FCEEC11F065EF00F0000E00010F
:1000B800956F000E946F000E976F050E966FCEEC3D
:1000C80011F0000E0001EA6FDEEC15F0F1EC14F00F
:1000D8000001EB6F4D0EEB19D8B475EF00F077EF18
:1000E80000F080EF00F06D0EEB19D8A47EEF00F061
:1000F80080EF00F00BEF01F0580EEAEC0AF066C052
:10010800EEF067C0EFF02D0E0001EE5D010EEF5925
:10011800D8A091EF00F093EF00F095EF00F0010EFA
:10012800EA6FEA51D8A49BEF00F09DEF00F0A4EF2E
:1001380000F0590EEAEC0AF066C0ECF067C0EDF08A
:100148002D0E0001EC5D010EED59D8A0AEEF00F0C8
:10015800B0EF00F0B2EF00F0010EEA6F300EEE19CA
:1001680009E1750EEF19D8B4BCEF00F0BEEF00F04E
:10017800CAEF00F0300EEC1907E1750EED19D8A49E
:10018800C8EF00F0CAEF00F0CCEF00F0020EEA6F03
:10019800EA51D8A4D2EF00F0D4EF00F0F8EF00F065
:1001A800F251EE5DE76FF351EF59E86FF051EC5DF6
:1001B800E56FF151ED59E66F6AEC18F0E7C094F07D
:1001C800E8C095F0E5C096F0E6C097F0CEEC11F0E7
:1001D80062EC17F0EEC0F2F0EFC0F3F0ECC0F0F014
:1001E800EDC0F1F006EF01F0EA05D8A4FEEF00F04B
:1001F80000EF01F004EF01F031EC18F006EF01F028
:10020800F7EC17F0000E0001EB6F62EF02F0410E01
:10021800EB19D8B412EF01F014EF01F01DEF01F063
:10022800610EEB19D8A41BEF01F01DEF01F025EFCB
:1002380001F06AEC18F04FEC15F062EC17F006EFDD
:1002480001F0530EEB19D8B42CEF01F02EEF01F0AA
:1002580037EF01F0730EEB19D8A435EF01F037EF43
:1002680001F063EF01F06AEC18F03EEC07F0F2C021
:100278009CF0F3C09DF0F0C09EF0F1C09FF034EC0C
:1002880012F000019C51E96FA00EE9614EEF01F0F8
:1002980050EF01F021EF01F0E951040F85EC18F05F
:1002A80061C0F2F062C0F3F00001E951060F85EC7D
:1002B80018F061C0F0F062C0F1F021EF01F0450ED6
:1002C800EB19D8B46AEF01F06CEF01F075EF01F0AB
:1002D800650EEB19D8A473EF01F075EF01F07BEF11
:1002E80001F03EEC07F04DEC08F021EF01F0430E71
:1002F800EB19D8B482EF01F084EF01F08DEF01F033
:10030800630EEB19D8A48BEF01F08DEF01F091EF9C
:1003180001F023EC15F021EF01F0460EEB19D8B4EB
:1003280098EF01F09AEF01F0A3EF01F0660EEB19D8
:10033800D8A4A1EF01F0A3EF01F0CEEF01F06AEC31
:1003480018F0FAEC12F0F2C0ACF0F3C0ADF0F0C067
:10035800AEF0F1C0AFF087EC14F00001E96FA00E29
:10036800E961B9EF01F0BBEF01F006EF01F0E951E7
:10037800040F85EC18F061C0F2F062C0F3F00001E0
:10038800E951060F85EC18F061C0F0F062C0F1F099
:1003980006EF01F04C0EEB19D8B4D5EF01F0D7EF0A
:1003A80001F0E0EF01F06C0EEB19D8A4DEEF01F0DC
:1003B800E0EF01F0E4EF01F03EEC07F006EF01F0AA
:1003C8004E0EEB19D8B4EBEF01F0EDEF01F0F6EFBC
:1003D80001F06E0EEB19D8A4F4EF01F0F6EF01F07E
:1003E800FAEF01F0FAEC12F006EF01F0540EEB19F7
:1003F800D8B401EF02F003EF02F00CEF02F0740E34
:10040800EB19D8A40AEF02F00CEF02F018EF02F093
:10041800F2C06CF0F3C06DF0F0C06EF0F1C06FF098
:1004280053EC0CF062EF02F0520EEB19D8B41FEF48
:1004380002F021EF02F02AEF02F0720EEB19D8A4B5
:1004480028EF02F02AEF02F054EF02F06AEC18F0FD
:1004580081B231EF02F033EF02F03EEF02F0FC0E12
:100468000001956F180E946F000E976F000E966F2F
:10047800CEEC11F081B043EF02F045EF02F050EFFF
:1004880002F0000E0001956F000E946FFC0E976F3E
:10049800180E966FCEEC11F062EC17F062EF02F0D6
:1004A800EB51D8A45AEF02F05CEF02F060EF02F0D3
:1004B800F7EC17F062EF02F014EC18F0000E0001F0
:1004C800EF6F000EEE6F000EED6F000EEC6FF2C0D6
:1004D80062F0F3C063F0FC0E85EC19F0F0C062F036
:1004E800F1C063F0FE0E72EC19F065EF00F007EF53
:1004F80000F000016351800B6C6F635163256E6FD0
:1005080062AF89EF02F08BEF02F08CEF02F06E81A0
:100518006E51D8B492EF02F094EF02F0A9EF02F016
:100528006E29D8A49AEF02F09CEF02F0A4EF02F033
:10053800000E606F000E616F000E626F000E636F39
:10054800628F000E636FB1EF02F0000E606F000E55
:10055800616F000E626F000E636F6751800B6D6FE5
:100568006C516D19D8B4BBEF02F0BDEF02F0BEEFCD
:1005780002F06C8D675167256D6F66AFC6EF02F0AC
:10058800C8EF02F0C9EF02F06D816D51D8B4CFEF1A
:1005980002F0D1EF02F0E6EF02F06D29D8A4D7EF10
:1005A80002F0D9EF02F0E1EF02F0000E646F000EE6
:1005B800656F000E666F000E676F668F000E676FBF
:1005C800EEEF02F0000E646F000E656F000E666FAE
:1005D800000E676F6E516D5DD8B0F5EF02F0F7EF62
:1005E80002F01EEF03F06CADFCEF02F0FEEF02F03C
:1005F80000EF03F0800E6C1B6EC06FF06DC06EF0E4
:100608006FC06DF060C06FF064C060F06FC064F0E0
:1006180061C06FF065C061F06FC065F062C06FF0D7
:1006280066C062F06FC066F063C06FF067C063F0C9
:100638006FC067F0000E6F6F6E516DC068F0696B28
:10064800685F000E695B69BF33EF03F0695109E128
:100658001A0E685DD8A033EF03F035EF03F06CEFA6
:1006680003F06051611162116311D8A43EEF03F0E9
:1006780041EF03F0010E42EF03F0000E6F6F000E22
:10068800606F000E616F000E626F000E636F6DC0C9
:100698006EF075EF03F06FA154EF03F056EF03F01F
:1006A8005CEF03F0D8906F3101096F6F5EEF03F0D4
:1006B800D8906F3360A163EF03F065EF03F066EF46
:1006C80003F06F8F633563336233613360336E2BAE
:1006D8006D516E5DD8A073EF03F075EF03F04FEF27
:1006E80003F06CBD7AEF03F07CEF03F0BCEF03F08E
:1006F8006E51D8A482EF03F084EF03F08EEF03F07D
:10070800000E606F000E616F000E626F000E636F67
:10071800DDEF04F06451602765516123665162235F
:100728006751632363A19BEF03F09DEF03F049EF4B
:1007380004F06FA1A2EF03F0A4EF03F0AAEF03F017
:10074800D8906F3101096F6FACEF03F0D8906F3319
:1007580060A1B1EF03F0B3EF03F0B4EF03F06F8FD4
:10076800633563336233613360336E2B49EF04F0D2
:100778006451605D65516159665162596351800ADF
:10078800686F6751800A6859D8B0CDEF03F0CFEF92
:1007980003F0FAEF03F06051645D686F61516559C9
:1007A800696F625166596A6F635167596B6FFF0EC3
:1007B8006825606FFF0E6921616FFF0E6A21626F05
:1007C800FF0E6B21636F800E6C1B6F6D6F51D8A489
:1007D800F0EF03F0F2EF03F002EF04F0010E6027F0
:1007E800000E61236223632302EF04F06451605F0B
:1007F8006551615B6651625B6751635B6051611172
:1008080062116311D8A40BEF04F00DEF04F042EF6E
:1008180004F06F51D8A413EF04F015EF04F042EF81
:1008280004F0000E606F000E616F000E626F000E24
:10083800636FDDEF04F0D890603761376237633754
:100848006FAF29EF04F02BEF04F02CEF04F0608178
:100858006FA131EF04F033EF04F037EF04F0D880E4
:100868006F3739EF04F0D8906F376E51D8B43FEF37
:1008780004F041EF04F042EF04F06E0762AF47EF77
:1008880004F049EF04F01FEF04F0000E6D6F6FAF36
:1008980050EF04F052EF04F06AEF04F06FC068F014
:1008A8007F0E6817D8B45BEF04F05DEF04F061EFDA
:1008B80004F0010E6D6F6AEF04F060A166EF04F0BA
:1008C80068EF04F06AEF04F05DEF04F06D51D8B4FE
:1008D80070EF04F072EF04F09DEF04F0010E602752
:1008E800000E61236223632363A17DEF04F07FEF91
:1008F80004F09DEF04F060C068F061C069F062C068
:100908006AF063C06BF06B356B336A3369336833F5
:1009180068C060F069C061F06AC062F06BC063F0E3
:100928006E29D8B49AEF04F09CEF04F09DEF04F020
:100938006E2B6E29D8B4A3EF04F0A5EF04F0ADEF49
:1009480004F06E51D8A4ABEF04F0ADEF04F0BFEFA4
:1009580004F0000E606F000E616F000E626F000EF3
:10096800636F6E51D8A4BBEF04F0BDEF04F0BFEF86
:1009780004F0000E6C6F6EA1C4EF04F0C6EF04F033
:10098800C9EF04F0628FCAEF04F0629FD8906E310D
:10099800636F6CAFD2EF04F0D4EF04F0D5EF04F03E
:1009A800638F60C060F061C061F062C062F063C0D4
:1009B80063F012000450800B0D6E045004240F6E77
:1009C80003AEE9EF04F0EBEF04F0ECEF04F00F8076
:1009D8000F50D8B4F2EF04F0F4EF04F009EF05F08B
:1009E8000F28D8A4FAEF04F0FCEF04F004EF05F0A8
:1009F800000E016E000E026E000E036E000E046EF5
:100A0800038E000E046E11EF05F0000E016E000E4D
:100A1800026E000E036E000E046E0850800B0E6E00
:100A28000D500E18D8B41BEF05F01DEF05F01EEFA2
:100A380005F00D8C085008240E6E07AE26EF05F061
:100A480028EF05F029EF05F00E800E50D8B42FEFEF
:100A580005F031EF05F046EF05F00E28D8A437EF82
:100A680005F039EF05F041EF05F0000E056E000EB8
:100A7800066E000E076E000E086E078E000E086EDA
:100A88004EEF05F0000E056E000E066E000E076EA6
:100A9800000E086E0F500E5CD8B055EF05F057EFFA
:100AA80005F07EEF05F00DAC5CEF05F05EEF05F0AC
:100AB80060EF05F0800E0D1A0FC010F00EC00FF099
:100AC80010C00EF001C010F005C001F010C005F014
:100AD80002C010F006C002F010C006F003C010F00B
:100AE80007C003F010C007F004C010F008C004F0FD
:100AF80010C008F0000E106E0F500EC009F00A6A00
:100B0800095E000E0A5A0ABE93EF05F00A5009E181
:100B18001A0E095CD8A093EF05F095EF05F0CCEF1D
:100B280005F00150021003100410D8A49EEF05F040
:100B3800A1EF05F0010EA2EF05F0000E106E000EF9
:100B4800016E000E026E000E036E000E046E0EC0E3
:100B58000FF0D5EF05F010A0B4EF05F0B6EF05F0F3
:100B6800BCEF05F0D89010300109106EBEEF05F00B
:100B7800D890103201A0C3EF05F0C5EF05F0C6EF1D
:100B880005F0108E043404320332023201320F2A87
:100B98000E500F5CD8A0D3EF05F0D5EF05F0AFEFFE
:100BA80005F00DBCDAEF05F0DCEF05F01CEF06F000
:100BB8000F50D8A4E2EF05F0E4EF05F0EEEF05F0F2
:100BC800000E016E000E026E000E036E000E046E23
:100BD8003DEF07F005500126065002220750032278
:100BE8000850042204A0FBEF05F0FDEF05F0A9EF83
:100BF80006F010A002EF06F004EF06F00AEF06F088
:100C0800D89010300109106E0CEF06F0D890103211
:100C180001A011EF06F013EF06F014EF06F0108EA6
:100C2800043404320332023201320F2AA9EF06F0EB
:100C38000550015C06500258075003580450800ABA
:100C4800096E0850800A0958D8B02DEF06F02FEF2A
:100C580006F05AEF06F00150055C096E025006587E
:100C68000A6E035007580B6E045008580C6EFF0E9E
:100C78000924016EFF0E0A20026EFF0E0B20036E80
:100C8800FF0E0C20046E800E0D1A106C1050D8A4A4
:100C980050EF06F052EF06F062EF06F0010E012663
:100CA800000E02220322042262EF06F00550015EC4
:100CB8000650025A0750035A0850045A01500210AD
:100CC80003100410D8A46BEF06F06DEF06F0A2EF46
:100CD80006F01050D8A473EF06F075EF06F0A2EFF7
:100CE80006F0000E016E000E026E000E036E000E7E
:100CF800046E3DEF07F0D89001360236033604360D
:100D080010AE89EF06F08BEF06F08CEF06F001804D
:100D180010A091EF06F093EF06F097EF06F0D88059
:100D2800103699EF06F0D89010360F50D8B49FEFD0
:100D380006F0A1EF06F0A2EF06F00F0603AEA7EF4C
:100D480006F0A9EF06F07FEF06F0000E0E6E10AE6B
:100D5800B0EF06F0B2EF06F0CAEF06F010C009F0E7
:100D68007F0E0916D8B4BBEF06F0BDEF06F0C1EF51
:100D780006F0010E0E6ECAEF06F001A0C6EF06F0EF
:100D8800C8EF06F0CAEF06F0BDEF06F00E50D8B473
:100D9800D0EF06F0D2EF06F0FDEF06F0010E0126C7
:100DA800000E02220322042204A0DDEF06F0DFEF8A
:100DB80006F0FDEF06F001C009F002C00AF003C01A
:100DC8000BF004C00CF00C340C320B320A3209322E
:100DD80009C001F00AC002F00BC003F00CC004F017
:100DE8000F28D8B4FAEF06F0FCEF06F0FDEF06F096
:100DF8000F2A0F28D8B403EF07F005EF07F00DEF1F
:100E080007F00F50D8A40BEF07F00DEF07F01FEF16
:100E180007F0000E016E000E026E000E036E000E4B
:100E2800046E0F50D8A41BEF07F01DEF07F01FEF5B
:100E380007F0000E0D6E0FA024EF07F026EF07F065
:100E480029EF07F0038E2AEF07F0039ED8900F30A2
:100E5800046E0DAE32EF07F034EF07F035EF07F010
:100E6800048E01C001F002C002F003C003F004C008
:100E780004F01200000E00017C6F000E846F000E5B
:100E8800836F000E7D6F000E7E6F000E866F000E62
:100E9800856F000E876F20EEB2F010EE6CF00D0E2D
:100EA800DBCFE3FFE806FCE244EF08F0000E816FB9
:100EB8008151872579EC1AF057EC1AF00001812B43
:100EC800030E81656AEF07F06CEF07F05CEF07F03F
:100ED800200E57EC1AF000018751040F876F8751D5
:100EE80079EC1AF000017C6F872979EC1AF000017F
:100EF8007B6F7BC083F0846B8351846F836B7C51E1
:100F08008325836F000E8421846F8751020F876FBA
:100F1800875179EC1AF000017E6F872979EC1AF075
:100F280000017D6F7DC085F0866B8551866F856B6E
:100F38007E518525856F000E8621866F83C065F0FA
:100F480084C066F0000E686F640E676F4CEC14F096
:100F580000016551300F6E6F000E636F640E626F93
:100F680083C060F084C061F0BEEC14F060C065F02E
:100F780061C066F0000E0001686F0A0E676F4CECE6
:100F880014F000016551300F6F6F000E636F640E2F
:100F9800626F83C060F084C061F0BEEC14F060C082
:100FA8007FF061C080F07FC060F080C061F0000E0B
:100FB8000001636F0A0E626FBEEC14F0000160510D
:100FC800300F706F85C065F086C066F0000E686FE0
:100FD800640E676F4CEC14F000016551300F746FAC
:100FE800000E636F640E626F85C060F086C061F0AA
:100FF800BEEC14F060C065F061C066F0000E000140
:10100800686F0A0E676F4CEC14F000016551300FE1
:10101800756F000E636F640E626F85C060F086C0E6
:1010280061F0BEEC14F060C07FF061C080F07FC05A
:1010380060F080C061F0000E0001636F0A0E626FFD
:10104800BEEC14F000016051300F766F000E826F15
:101058006C0E8225D96EDA6A000EDA22DF507A6FBA
:101068007A5157EC1AF00001822B0D0E82653FEF82
:1010780008F041EF08F02CEF08F08751020F876F56
:101088009F0E87654AEF08F04CEF08F05AEF07F01B
:101098001200000E0001886F820E8825D96EDA6A68
:1010A800000EDA22F1EC14F0DF6E00F0820E00017F
:1010B8008825D96EDA6A000EDA22DF507D6F00F0DB
:1010C80000017D5157EC1AF00001882B030E88654A
:1010D80070EF08F072EF08F050EF08F00A0E57ECC6
:1010E8001AF00D0E57EC1AF0820E0001616F000E17
:1010F800626FF1EC10F000018A6F000E876FA00E8E
:101108008A6189EF08F08BEF08F031EF09F0000EE3
:10111800896F820E8925D96EDA6A000EDA22F1EC1F
:1011280014F0DF6E00F0820E00018925D96EDA6AAC
:10113800000EDA22DF5057EC1AF00001892B030E5B
:101148008965A9EF08F0ABEF08F08DEF08F0820E83
:10115800616F000E626FF1EC10F00001866FA00E57
:101168008661B9EF08F0BBEF08F0C4EF08F08A51C8
:101178008619D8A4C2EF08F0C4EF08F02DEF09F0E3
:10118800200E57EC1AF0580EEAEC0AF066C07EF012
:1011980067C07FF02D0E00017E5D010E7F59D8A03B
:1011A800D8EF08F0DAEF08F0DCEF08F0010E876FEF
:1011B8008705D8B4E2EF08F0E4EF08F0F4EF08F0A0
:1011C800200E57EC1AF0590EEAEC0AF066C080F0CF
:1011D80067C081F00A0E57EC1AF00D0E57EC1AF0A2
:1011E8002D0E0001805D010E8159D8A0FEEF08F098
:1011F80000EF09F002EF09F0010E876F8705D8B4F8
:1012080008EF09F00AEF09F029EF09F0820E626F82
:10121800000E636F8A514EEC18F000018A51040FDA
:101228008A6F7EC062F07FC063F08A5185EC19F046
:1012380000018A51020F8A6F80C062F081C063F09A
:101248008A5172EC19F033EF09F031EC18F033EFF2
:1012580009F082EC16F033EF09F002EC17F01200F7
:1012680000016E6F00016E51D8B43DEF09F03FEFF9
:1012780009F061EF09F069BF46EF09F044EF09F0A2
:1012880061EF09F066C06AF067C06BF068C06CF087
:1012980069C06DF06A1F6B1F6C1F6D1F6A2B000EF3
:1012A8006B236C236D236AC070F06BC071F06CC047
:1012B80072F06DC073F069EF09F066C070F067C036
:1012C80071F068C072F069C073F0665167116811F7
:1012D8006911D8A472EF09F074EF09F07EEF09F0F4
:1012E800000E666F000E676F000E686F000E696F64
:1012F8000FEF0AF0960E6F6F88EF09F06F2BD890FA
:101308007333723371337033000E70156A6F000EC9
:1013180071156B6F000E72156C6FFE0E73156D6F85
:101328006A516B116C116D11D8A49DEF09F09FEFF4
:1013380009F082EF09F0ADEF09F06F2B010E70276D
:10134800000E712372237323D89073337233713371
:101358007033000E70156A6F000E71156B6F000EFA
:1013680072156C6FFF0E73156D6F6A516B116C11EE
:101378006D11D8A4C2EF09F0C4EF09F0A1EF09F08C
:10138800CCEF09F06F07D890703771377237733721
:1013980072BFD1EF09F0D3EF09F0DBEF09F0020ECD
:1013A8006F61D9EF09F0DBEF09F0C6EF09F06FB113
:1013B800E0EF09F0E2EF09F0E3EF09F0729FD8904F
:1013C8006F336FC06AF06B6B6C6B6D6B6AC06DF0DE
:1013D8006C6B6B6B6A6B6A5170136B5171136C5148
:1013E80072136D5173136E51D8B4FDEF09F0FFEF0E
:1013F80009F007EF0AF069BF06EF0AF004EF0AF0F8
:1014080007EF0AF0738F70C066F071C067F072C0A2
:1014180068F073C069F012000F6E0F50D8B417EF60
:101428000AF019EF0AF03BEF0AF00ABE20EF0AF0C3
:101438001EEF0AF03BEF0AF007C00BF008C00CF0F3
:1014480009C00DF00AC00EF00B1E0C1E0D1E0E1E5C
:101458000B2A000E0C220D220E220BC011F00CC01C
:1014680012F00DC013F00EC014F043EF0AF007C0DD
:1014780011F008C012F009C013F00AC014F00750A8
:10148800081009100A10D8A44CEF0AF04EEF0AF021
:1014980058EF0AF0000E076E000E086E000E096E77
:1014A800000E0A6EE9EF0AF0960E106E62EF0AF06F
:1014B800102AD8901432133212321132000E11143D
:1014C8000B6E000E12140C6E000E13140D6EFE0E31
:1014D80014140E6E0B500C100D100E10D8A477EFCC
:1014E8000AF079EF0AF05CEF0AF087EF0AF0102AA9
:1014F800010E1126000E122213221422D890143243
:10150800133212321132000E11140B6E000E121427
:101518000C6E000E13140D6EFF0E14140E6E0B508D
:101528000C100D100E10D8A49CEF0AF09EEF0AF0D4
:101538007BEF0AF0A6EF0AF01006D89011361236A3
:101548001336143613BEABEF0AF0ADEF0AF0B5EF61
:101558000AF0020E1060B3EF0AF0B5EF0AF0A0EF40
:101568000AF010B0BAEF0AF0BCEF0AF0BDEF0AF0CB
:10157800139ED890103210C00BF00C6A0D6A0E6AD8
:101588000BC00EF00D6A0C6A0B6A0B5011120C504E
:1015980012120D5013120E5014120F50D8B4D7EF68
:1015A8000AF0D9EF0AF0E1EF0AF00ABEE0EF0AF01C
:1015B800DEEF0AF0E1EF0AF0148E11C007F012C056
:1015C80008F013C009F014C00AF0120000016A6F95
:1015D800000E00016E6F6A5157EC1AF0F1EC14F02E
:1015E80000016F6F3A0E6F61FCEF0AF0FEEF0AF030
:1015F8000DEF0BF02F0E6F6504EF0BF006EF0BF0FD
:101608000DEF0BF06FC06DF06D5157EC1AF00FEF46
:101618000BF0010E6E6F00016E05D8B416EF0BF0DB
:1016280018EF0BF035EF0BF0F1EC14F00001706FD0
:101638003A0E706122EF0BF024EF0BF033EF0BF052
:101648002F0E70652AEF0BF02CEF0BF033EF0BF039
:1016580070C06DF06D5157EC1AF035EF0BF0010EBC
:101668006E6F00016E05D8B43CEF0BF03EEF0BF047
:101678005BEF0BF0F1EC14F00001716F3A0E716141
:1016880048EF0BF04AEF0BF059EF0BF02F0E716596
:1016980050EF0BF052EF0BF059EF0BF071C06DF0FB
:1016A8006D5157EC1AF05BEF0BF0010E6E6F0001F5
:1016B8006E05D8A462EF0BF064EF0BF06AEF0BF045
:1016C800EA0E6C6F600E6B6F80EF0BF06F51640D5C
:1016D800F3CF68F0F4CF69F070510A0DF350682722
:1016E800F450692371516827000E6923300E68256C
:1016F8006B6FEB0E69216C6F6F51D8B486EF0BF0EE
:1017080088EF0BF098EF0BF07051D8B48EEF0BF018
:1017180090EF0BF098EF0BF07151D8A496EF0BF007
:1017280098EF0BF09CEF0BF0750E6C6F300E6B6F33
:101738006BC066F06CC067F0120083A8A6EF0BF0D0
:10174800A8EF0BF0AAEF0BF04FEC15F0A00E00017C
:10175800AB6F030EAA6F000EA96F2EEF0CF0AB5102
:1017680079EC1AF00001AA6F140EAA65BEEF0BF00F
:10177800C0EF0BF021EF0CF0FC0EAA61C6EF0BF0E6
:10178800C8EF0BF021EF0CF0000EA86FA00EA825F3
:10179800D96EDA6A000EDA22A851AB2579EC1AF074
:1017A800DF6E0001A82B030EA865DDEF0BF0DFEF5D
:1017B8000BF0CAEF0BF0A00E616F000E626FF1EC38
:1017C80010F00001A96FA00EA961EDEF0BF0EFEF8B
:1017D8000BF01DEF0CF0A951040F85EC18F061C057
:1017E800A4F062C0A5F00001A951060F85EC18F01D
:1017F80061C0A6F062C0A7F000019C51A45D946F7F
:101808009D51A559956F9E51A65D966F9F51A759F9
:10181800976FCEEC11F0A4C09CF0A5C09DF0A6C0B7
:101828009EF0A7C09FF00001AB51040FAB6F2EEFE5
:101838000CF002EC17F017EF0CF0140EAA19D8A44C
:1018480028EF0CF02AEF0CF02EEF0CF04FEC15F00F
:101858000001AB2BAA51D8B434EF0CF036EF0CF0E2
:101868003EEF0CF0FB0EAB653CEF0CF03EEF0CF0DE
:10187800B3EF0BF0AA51D8A444EF0CF046EF0CF0EC
:1018880051EF0CF0A00EAB19D8A44DEF0CF04FEFB0
:101898000CF051EF0CF0AA0EA96FA951120020EE1E
:1018A800C0F010EE70F00B0EDBCFE3FFE806FCE2B1
:1018B8006CC065F06DC066F0000E0001686F640EC4
:1018C800676F4CEC14F000016551300F726F000E19
:1018D800636F640E626F6CC060F06DC061F0BEEC47
:1018E80014F060C065F061C066F0000E0001686F1A
:1018F8000A0E676F4CEC14F000016551300F736FDE
:10190800000E636F640E626F6CC060F06DC061F0B2
:10191800BEEC14F060C07DF061C07EF07DC060F068
:101928007EC061F0000E0001636F0A0E626FBEECAC
:1019380014F000016051300F746F6EC065F06FC015
:1019480066F0000E686F640E676F4CEC14F00001CF
:101958006551300F786F000E636F640E626F6EC052
:1019680060F06FC061F0BEEC14F060C065F061C05B
:1019780066F0000E0001686F0A0E676F4CEC14F0F9
:1019880000016551300F796F000E636F640E626F4E
:101998006EC060F06FC061F0BEEC14F060C07DF006
:1019A80061C07EF07DC060F07EC061F0000E000175
:1019B800636F0A0E626FBEEC14F000016051300FC5
:1019C8007A6F000E7F6F700E7F25D96EDA6A000E6F
:1019D800DA22DF507C6F7C5157EC1AF000017F2B24
:1019E8000B0E7F65FAEF0CF0FCEF0CF0E7EF0CF054
:1019F8001200000E00016F6F000E706F000E6D6F09
:101A0800000E6E6F000E6A6F000E696F000E6C6F2D
:101A1800000E6B6F6F0E5C6E000E5D6E700E5A6E70
:101A2800000E5B6E320E20EC19F0320E0AEC19F043
:101A38008EEF0DF082A423EF0DF025EF0DF033EFBC
:101A48000DF06D51D8A42BEF0DF02DEF0DF033EF05
:101A58000DF0010E6D6F694B6A2B3CEF0DF082B4EF
:101A680038EF0DF03AEF0DF03CEF0DF0000E6D6F12
:101A780082A241EF0DF043EF0DF051EF0DF06E51E2
:101A8800D8A449EF0DF04BEF0DF051EF0DF0010E1A
:101A98006E6F6B4B6C2B5AEF0DF082B256EF0DF058
:101AA80058EF0DF05AEF0DF0000E6E6F65C060F044
:101AB80066C061F000EC16F000016051695D61518B
:101AC8006A59D8A06AEF0DF06CEF0DF074EF0DF0C5
:101AD800010E6F6F000E20EC19F0000E00EC1AF0EA
:101AE80067C060F068C061F000EC16F0000160515A
:101AF8006B5D61516C59D8A084EF0DF086EF0DF045
:101B08008EEF0DF0010E706F000E0AEC19F0000E4A
:101B1800F0EC19F000016F51D8B495EF0DF097EF84
:101B28000DF01EEF0DF07051D8B49DEF0DF09FEF42
:101B38000DF01EEF0DF01200000E106E000E116E6B
:101B4800000E0E6E000E0F6E000E0B6E000E0A6E6B
:101B5800000E0D6E000E0C6E100E5C6E000E5D6EAB
:101B6800110E5A6E000E5B6E320E5EEC19F0320EDC
:101B78004AEC19F02EEF0EF082A4C5EF0DF0C7EF76
:101B88000DF0D5EF0DF00E50D8A4CDEF0DF0CFEF3E
:101B98000DF0D5EF0DF0010E0E6E0A4A0B2ADEEF9E
:101BA8000DF082B4DAEF0DF0DCEF0DF0DEEF0DF0A2
:101BB800000E0E6E82A2E3EF0DF0E5EF0DF0F3EFED
:101BC8000DF00F50D8A4EBEF0DF0EDEF0DF0F3EFA3
:101BD8000DF0010E0F6E0C4A0D2AFCEF0DF082B2CB
:101BE800F8EF0DF0FAEF0DF0FCEF0DF0000E0F6EB0
:101BF80006C001F007C002F042EC17F001500A5C81
:101C080002500B58D8A00BEF0EF00DEF0EF015EFA9
:101C18000EF0010E106E000E5EEC19F0000E49EC8D
:101C28001AF008C001F009C002F042EC17F00150A8
:101C38000C5C02500D58D8A024EF0EF026EF0EF0E1
:101C48002EEF0EF0010E116E000E4AEC19F0000E88
:101C58003BEC1AF01050D8B434EF0EF036EF0EF01B
:101C6800C0EF0DF01150D8B43CEF0EF03EEF0EF07F
:101C7800C0EF0DF012000600E1CF3EF0E2CF3FF0DA
:101C8800D9CF40F0DACF41F0F3CF42F0F4CF43F0B0
:101C98000D0E3D6EFC0EE82EFED73D2EFCD7F0A0B3
:101CA80058EF0EF05AEF0EF080EF0EF081A25FEFC2
:101CB8000EF061EF0EF080EF0EF0BBEC18F0000EA6
:101CC800366E050E356E000E386E000E376E99ECC6
:101CD80012F058C0D9FF59C0DAFF000EDE6E000EB0
:101CE800DD6E54C0D9FF55C0DAFF000EDE6E000E5F
:101CF800DD6EF090C7EF0EF0F2A285EF0EF087EFE1
:101D08000EF0ADEF0EF081A08CEF0EF08EEF0EF01E
:101D1800ADEF0EF0A0EC18F0000E366E000E356E2A
:101D2800000E386E050E376E99EC12F056C0D9FFCA
:101D380057C0DAFF000EDE6E000EDD6E52C0D9FF0E
:101D480053C0DAFF000EDE6E000EDD6EF292C7EFB2
:101D58000EF0F0A2B2EF0EF0B4EF0EF0C7EF0EF0F7
:101D680081A4B9EF0EF0BBEF0EF0C7EF0EF082ECD6
:101D78001AF081B4C2EF0EF0C4EF0EF0BDEF0EF012
:101D88008BEC1AF0F092F090F292F29243C0F4FFCA
:101D980042C0F3FF41C0DAFF40C0D9FF3FC0E2FFB5
:101DA8003EC0E1FF5F92110088C060F089C061F019
:101DB80000EC16F060C090F061C091F090C060F047
:101DC80091C061F0000E0001636F050E626F36EC82
:101DD80019F0000160C066F061C067F0686B696B5C
:101DE800000E34EC09F066C08CF067C08DF068C056
:101DF8008EF069C08FF090C060F091C061F0000E65
:101E08000001636F050E626F36EC19F060C092F046
:101E180061C093F092C066F093C067F00001686BF0
:101E2800696B000E34EC09F066C078F067C079F091
:101E380068C07AF069C07BF08CC074F08DC075F012
:101E48008EC076F08FC077F075EC15F074C07CF01A
:101E580075C07DF076C07EF077C07FF0000E00017F
:101E6800806F000E816F000E826F3F0E836FECEC67
:101E78000FF00001D8A043EF0FF045EF0FF047EF48
:101E88000FF0924B932B89BF4EEF0FF04CEF0FF0F2
:101E980054EF0FF092C088F093C089F060EF0FF014
:101EA80092C08AF093C08BF08A1F8B1F8A4B8B2BB2
:101EB8008AC088F08BC089F088C088F089C089F012
:101EC800120029C001F02AC002F042EC17F001C04C
:101ED80031F002C032F031C001F032C002F0000E21
:101EE800046E050E036EABEC19F001C007F002C0DA
:101EF80008F0096A0A6A000E10EC0AF007C02DF013
:101F080008C02EF009C02FF00AC030F031C001F02F
:101F180032C002F0000E046E050E036EABEC19F031
:101F280001C033F002C034F033C007F034C008F009
:101F3800096A0A6A000E10EC0AF007C019F008C016
:101F48001AF009C01BF00AC01CF02DC015F02EC0F5
:101F580016F02FC017F030C018F099EC15F015C026
:101F68001DF016C01EF017C01FF018C020F0000E9C
:101F7800216E000E226E000E236E3F0E246E6FEC53
:101F880010F0D8A0CAEF0FF0CCEF0FF0CEEF0FF0A3
:101F9800334A342A2ABED5EF0FF0D3EF0FF0DBEF28
:101FA8000FF033C029F034C02AF0E7EF0FF033C048
:101FB8002BF034C02CF02B1E2C1E2B4A2C2A2BC0A5
:101FC80029F02CC02AF029C029F02AC02AF01200D2
:101FD800000E00017C15846F000E7D15856F800E44
:101FE8007E15866F7F0E7F15876F84518511861148
:101FF8008711D8A402EF10F004EF10F00CEF10F0E6
:10200800000E7C6F000E7D6F000E7E6F000E7F6FDE
:10201800000E8015846F000E8115856F800E821565
:10202800866F7F0E8315876F8451851186118711FE
:10203800D8A421EF10F023EF10F02BEF10F0000ED2
:10204800806F000E816F000E826F000E836F7FAF6E
:1020580030EF10F032EF10F03BEF10F07C6D7D1F89
:10206800D8B07D2B7E1FD8B07E2B800E7F5783AFD4
:1020780040EF10F042EF10F04BEF10F0806D811F31
:10208800D8B0812B821FD8B0822B800E8357000EC8
:102098007C1B000E7D1B000E7E1B800E7F1B000E1E
:1020A800801B000E811B000E821B800E831B80513B
:1020B8007C5D81517D5982517E5983517F59D8B0B9
:1020C80068EF10F06AEF10F06DEF10F0D8906EEF37
:1020D80010F0D8801200000E1D14256E000E1E147C
:1020E800266E800E1F14276E7F0E2014286E255032
:1020F800261027102810D8A484EF10F086EF10F0CF
:102108008EEF10F0000E1D6E000E1E6E000E1F6E7C
:10211800000E206E000E2114256E000E2214266E6D
:10212800800E2314276E7F0E2414286E2550261047
:1021380027102810D8A4A3EF10F0A5EF10F0ADEFEA
:1021480010F0000E216E000E226E000E236E000E9F
:10215800246E20AEB2EF10F0B4EF10F0BDEF10F027
:102168001D6C1E1ED8B01E2A1F1ED8B01F2A800E36
:10217800205624AEC2EF10F0C4EF10F0CDEF10F0EF
:10218800216C221ED8B0222A231ED8B0232A800E02
:102198002456000E1D1A000E1E1A000E1F1A800E5D
:1021A800201A000E211A000E221A000E231A800E81
:1021B800241A21501D5C22501E5823501F582450A9
:1021C8002058D8B0EAEF10F0ECEF10F0EFEF10F075
:1021D800D890F0EF10F0D8801200000E0001666F62
:1021E800000E656F4FEF11F061C0D9FF62C0DAFFD2
:1021F800665179EC1AF00001646FDE506419D8A4B6
:1022080008EF11F00AEF11F04CEF11F020EE01F099
:102218006151D9266251DA22662979EC1AF0000157
:10222800646FDE506419D8A41CEF11F01EEF11F092
:102238004CEF11F020EE02F06151D9266251DA22FA
:102248006651020F79EC1AF00001646FDE506419D0
:10225800D8A431EF11F033EF11F04CEF11F020EE6C
:1022680003F06151D9266251DA226651030F79ECE5
:102278001AF00001646FDE506419D8A446EF11F01B
:1022880048EF11F04CEF11F0010E656F4FEF11F0B0
:102298006651080F666F6551D8A455EF11F057EFD6
:1022A80011F05FEF11F0F70E66655DEF11F05FEF6B
:1022B80011F0F8EF10F066511200426F72726172FD
:1022C8006173206C6120696E737472756363696FE2
:1022D8006E2061637475616C20457374617320733B
:1022E800656775726F3F2031536920324E6F0A0D52
:1022F800004E6F207075656465732065736372693D
:10230800626972206D617320696E7374727563639C
:10231800696F6E65730A0D00314D6F76696D696579
:102328006E746F2032416363696F6E203354657237
:102338006D696E61720A0D00424F544F4E2044453C
:10234800205041524F2050524553494F4E41444F1F
:102358000A0D005961206578697374652065737486
:102368006120646972656363696F6E0A0D004E6F60
:102378002065786973746520656C20536574706F87
:10238800696E740A0D004C494D49544520454E204C
:10239800590A0D00000196519425986F975195217F
:1023A800996F9651945D9A6F975195599B6F98C004
:1023B80088F099C089F0D8EC0EF088C098F089C0F0
:1023C80099F09AC088F09BC089F0D8EC0EF088C0CC
:1023D8009AF089C09BF0000199BFF7EF11F0F5EF73
:1023E80011F0FCEF11F0000EE0EC19F0FFEF11F026
:1023F800010EE0EC19F000019BBF07EF12F005EFAA
:1024080012F00CEF12F0000ED0EC19F00FEF12F0F2
:10241800010ED0EC19F000019A519B11D8B417EFB6
:1024280012F019EF12F01CEF12F0010EF0EC19F097
:10243800000198519911D8B424EF12F026EF12F048
:1024480029EF12F0010E00EC1AF098C065F099C05F
:1024580066F09AC067F09BC068F0FDEC0CF01200C3
:10246800000E0001A96FA00EA925D96EDA6A000E28
:10247800DA22F1EC14F0DF6E00F0A00E0001A925BD
:10248800D96EDA6A000EDA22DF50A86F00F0000178
:10249800A85157EC1AF00001A92B030EA96557EFB4
:1024A80012F059EF12F037EF12F00A0E57EC1AF04B
:1024B8000D0E57EC1AF0A00E0001616F000E626F4E
:1024C800F1EC10F00001AA6FA00EAA616EEF12F0F5
:1024D80070EF12F092EF12F0AA51040F85EC18F089
:1024E80061C0A4F062C0A5F00001AA51060F85ECF6
:1024F80018F061C0A6F062C0A7F000019C51A45D6D
:10250800946F9D51A559956F9E51A65D966F9F51E9
:10251800A759976FCEEC11F094EF12F002EC17F078
:10252800AAC09CF000019D6B120037503524396E0B
:10253800385036203A6E3750355C3B6E3850365836
:102548003C6E39C029F03AC02AF065EC0FF029C07A
:1025580039F02AC03AF03BC029F03CC02AF065ECBB
:102568000FF029C03BF02AC03CF03ABEC0EF12F091
:10257800BEEF12F0C5EF12F0000E2DEC1AF0C8EF06
:1025880012F0010E2DEC1AF03CBECFEF12F0CDEF99
:1025980012F0D4EF12F0000E1FEC1AF0D7EF12F081
:1025A800010E1FEC1AF03B503C10D8B4DEEF12F0CD
:1025B800E0EF12F0E3EF12F0010E3BEC1AF03950A5
:1025C8003A10D8B4EAEF12F0ECEF12F0EFEF12F095
:1025D800010E49EC1AF039C006F03AC007F03BC0CA
:1025E80008F03CC009F0A0EC0DF01200A00E0001AC
:1025F8006E6F050E6D6F42EF13F06E5179EC1AF0A5
:1026080000016D6F140E6D19D8B40DEF13F00FEFB4
:1026180013F036EF13F0FC0E6D6115EF13F017EFA2
:1026280013F036EF13F0000E6C6F6E516C256B6F64
:102638006B5179EC1AF057EC1AF000016C2B030E71
:102648006C6529EF13F02BEF13F019EF13F06E51AF
:10265800040F6E6F0A0E57EC1AF00D0E57EC1AF0B5
:1026680042EF13F06D51D8B43CEF13F03EEF13F086
:1026780042EF13F042EC16F000016E2BFC0E000145
:102688006E6149EF13F04BEF13F053EF13F06D51F8
:10269800D8A451EF13F053EF13F001EF13F0120029
:1026A800A00E00018A6F000E896F9FEF13F0E2EC15
:1026B80016F0F1EC14F00001896F310E8919D8A4D5
:1026C80068EF13F06AEF13F079EF13F0FC0E8A61EC
:1026D80070EF13F072EF13F079EF13F08A51AAEC50
:1026E80013F000018A6F9FEF13F0320E8919D8A4F6
:1026F80080EF13F082EF13F093EF13F0FC0E8A6172
:1027080088EF13F08AEF13F093EF13F0140E606F55
:102718008A51D6EC18F000018A2B9FEF13F0FB0EBC
:102728008A6599EF13F09BEF13F09FEF13F0C2EC5B
:1027380016F09FEF13F0330E00018919D8A4A7EF04
:1027480013F0A9EF13F05BEF13F012000001806F94
:10275800000E0001816F7A0E8125D96EDA6A000EAB
:10276800DA22F1EC14F0DF6E00F07A0E0001812518
:10277800D96EDA6A000EDA22DF507E6F00F00001AF
:102788007E5157EC1AF00001812B030E8165CFEFC3
:1027980013F0D1EF13F0AFEF13F00A0E57EC1AF065
:1027A8000D0E57EC1AF07A0E0001616F000E626F81
:1027B800F1EC10F000017F6FA00E7F61E6EF13F0DF
:1027C800E8EF13F0F7EF13F07A0E626F000E636F05
:1027D80080514EEC18F000018051040F806F000109
:1027E8008051FBEF13F002EC17F0F3EF13F0120037
:1027F800B40EF66E2F0EF76E000EF86E02EE00F0B5
:1028080010EE3AF00900F5CFEEFFE550E150FAE19D
:10281800C20EF66E220EF76E000EF86E01EE00F094
:1028280010EEDAF00900F5CFEEFFE550E150FAE1DD
:10283800E00EF66E310EF76E000EF86E00EEB2F096
:1028480010EE33F00900F5CFEEFFE550E150FAE164
:10285800C60EF66E340EF76E000EF86E00EE44F0FB
:1028680010EE16F00900F5CFEEFFE550E150FAE161
:1028780000EEE5F00F0EEE6AE806FDE15E6A5D6ABD
:102888005C6A5B6A5A6A5F905F92000109EF00F028
:10289800000E00016A6F000E696F67516811D8B4A5
:1028A80058EF14F05AEF14F082EF14F0010E6B6F2A
:1028B80062EF14F0D890673768376B2B68AF67EF13
:1028C80014F069EF14F05EEF14F0D89069376A37A6
:1028D8006751655D68516659D8A075EF14F077EFB8
:1028E80014F07CEF14F06751655F6851665B69818D
:1028F800D890683367336B2F69EF14F069C065F0BF
:102908006AC066F01200000E0001B16F000EB06FD1
:1029180062EC16F094EF14F0F1EC14F00001B16FD2
:10292800310E0001B119D8B49CEF14F09EEF14F0E9
:10293800A7EF14F0320EB119D8A4A5EF14F0A7EF41
:1029480014F090EF14F0310EB119D8A4AEEF14F0D2
:10295800B0EF14F0BCEF14F0ACC09CF0ADC09DF02B
:10296800AEC09EF0AFC09FF0A1EC0BF00001B06FBD
:10297800B0511200000162516311D8B4C6EF14F0CF
:10298800C8EF14F0ECEF14F0010E646FD0EF14F000
:10299800D89062376337642B63AFD5EF14F0D7EF65
:1029A80014F0CCEF14F06251605D63516159D8A006
:1029B800E0EF14F0E2EF14F0E6EF14F06251605F1C
:1029C8006351615BD89063336233642FD7EF14F09F
:1029D80060C060F061C061F0120021EC16F0000EDA
:1029E8000001616F000E626F000E636F000E646F6E
:1029F80016EF15F064510DE1200E615DA10E6259CC
:102A0800070E6359D8A00BEF15F00DEF15F010EF76
:102A180015F0000E22EF15F0010E6127000E62235B
:102A2800632364239EAA1BEF15F01DEF15F0FEEF3C
:102A380014F0AECF65F0000EAE6E65511200000EB8
:102A48000001996FA2EC16F02EEF15F0F1EC14F0DE
:102A58000001996F310E00019919D8B436EF15F0BD
:102A680038EF15F041EF15F0320E9919D8A43FEF61
:102A780015F041EF15F02AEF15F0310E9919D8A489
:102A880048EF15F04AEF15F04EEF15F098EC19F0F5
:102A980054EC13F012005E50D8A455EF15F057EF20
:102AA80015F05CEF15F0010E5E6E838E67EF15F082
:102AB8005E04D8A462EF15F064EF15F067EF15F027
:102AC800000E5E6E839E060E0001616F130E606F2E
:102AD800AD0EE82EFED7602FFCD7612FFAD700D0B5
:102AE8001200000E0001781B000E791B000E7A1BE5
:102AF800800E7B1B74C060F075C061F076C062F018
:102B080077C063F078C064F079C065F07AC066F089
:102B18007BC067F07DEC02F060C074F061C075F0B6
:102B280062C076F063C077F01200000E191A000E2A
:102B38001A1A000E1B1A800E1C1A15C001F016C0B6
:102B480002F017C003F018C004F019C005F01AC04D
:102B580006F01BC007F01CC008F0DEEC04F001C052
:102B680015F002C016F003C017F004C018F01200E8
:102B7800938093829384F288F086F088F090F292A2
:102B8800F092D09EF18EF18CF18AF188F28EB468C1
:102B9800B59E95909592959495969598959A959CAD
:102BA800959E83928390838683848398839A839C5B
:102BB800839E1200000EAE6E9E9ADEC061F0DFC0EA
:102BC80062F0E0C063F0000E0001656F610E6525DC
:102BD800D96EDA6A000EDA22DF50646F645157EC5E
:102BE8001AF00001652B020E6565FDEF15F0FFEF89
:102BF80015F0EAEF15F01200000161BF0EEF16F0B4
:102C0800615106E16005D8B00CEF16F00EEF16F032
:102C18001CEF16F060C062F061C063F0621F631FB2
:102C2800624B632B62C060F063C061F020EF16F066
:102C380060C060F061C061F01200ABA226EF16F030
:102C480028EF16F037EF16F0AECF60F0AECF60F099
:102C5800AECF60F0AB98AB88ABB235EF16F037EF7C
:102C680016F028EF16F0ABA43CEF16F03EEF16F086
:102C780041EF16F0AE50AC9AAC8A120020EECCF0C0
:102C880010EE61F0080EDBCFE3FFE806FCE2000E71
:102C980000016A6F610E6A25D96EDA6A000EDA22BF
:102CA800DF5057EC1AF000016A2B080E6A655FEFD7
:102CB80016F061EF16F04EEF16F0120022EE00F05B
:102CC80010EE61F0390EDBCFE3FFE806FCE2000E00
:102CD80000019B6F610E9B25D96EDA6A000EDA221D
:102CE800DF5057EC1AF000019B2B390E9B657FEFE4
:102CF80016F081EF16F06EEF16F0120021EE99F043
:102D080010EE61F01A0EDBCFE3FFE806FCE2000EDE
:102D180000017C6F610E7C25D96EDA6A000EDA221A
:102D2800DF5057EC1AF000017C2B1A0E7C659FEFE0
:102D380016F0A1EF16F08EEF16F0120021EE00F05B
:102D480010EE61F0360EDBCFE3FFE806FCE2000E82
:102D58000001986F610E9825D96EDA6A000EDA22A2
:102D6800DF5057EC1AF00001982B360E9865BFEF2C
:102D780016F0C1EF16F0AEEF16F0120021EE37F0A4
:102D880010EE61F0260EDBCFE3FFE806FCE2000E52
:102D98000001886F610E8825D96EDA6A000EDA2282
:102DA800DF5057EC1AF00001882B260E8865DFEFFC
:102DB80016F0E1EF16F0CEEF16F0120021EE5EF0FD
:102DC80010EE61F01F0EDBCFE3FFE806FCE2000E19
:102DD8000001816F610E8125D96EDA6A000EDA2250
:102DE800DF5057EC1AF00001812B1F0E8165FFEFB1
:102DF80016F001EF17F0EEEF16F0120021EEB4F026
:102E080010EE61F0170EDBCFE3FFE806FCE2000EE0
:102E18000001796F610E7925D96EDA6A000EDA221F
:102E2800DF5057EC1AF00001792B170E79651FEF68
:102E380017F021EF17F00EEF17F01200000E000147
:102E4800636F635179EC1AF00001626F6229D8A4AC
:102E580030EF17F032EF17F037EF17F05A0E606FB8
:102E68006351D6EC18F00001632B6329D8A43FEF17
:102E780017F041EF17F025EF17F0120002BE4FEFE1
:102E880017F0025006E10104D8B04DEF17F04FEFEC
:102E980017F05DEF17F001C003F002C004F0031E45
:102EA800041E034A042A03C001F004C002F061EFC3
:102EB80017F001C001F002C002F01200000EAE6E61
:102EC8009E9AE3C061F0E4C062F0000E0001636FF7
:102ED800610E6325D96EDA6A000EDA22DF5057ECEC
:102EE8001AF00001632B010E63657DEF17F07FEF89
:102EF80017F06CEF17F0120021EECCF010EE02F094
:102F08000D0EDBCFE3FFE806FCE2000E106E020EAA
:102F18001024D96EDA6A000EDA22DF506EEC1AF04D
:102F2800102A0D0E10649BEF17F09DEF17F08BEF32
:102F380017F0120020EE44F010EE02F00D0EDBCF79
:102F4800E3FFE806FCE2000E106E020E1024D96EB4
:102F5800DA6A000EDA22DF506EEC1AF0102A0D0E33
:102F68001064B9EF17F0BBEF17F0A9EF17F01200D4
:102F780021EE7EF010EE02F01A0EDBCFE3FFE8063A
:102F8800FCE2000E1D6E020E1D24D96EDA6A000ED8
:102F9800DA22DF506EEC1AF01D2A1A0E1D64D7EFE4
:102FA80017F0D9EF17F0C7EF17F0120045737461E7
:102FB800206573206C6120696E7374727563636930
:102FC8006F6E206120656A65637574617220457350
:102FD8007461732073656775726F3F203153692080
:102FE800324E6F0A0D00D5C061F0D6C062F0D7C06E
:102FF80063F0000E0001646F610E6425D96EDA6A11
:10300800000EDA22DF5057EC1AF00001642B020E92
:10301800646511EF18F013EF18F000EF18F01200C4
:10302800DBC061F0DCC062F0DDC063F0000E0001BF
:10303800646F610E6425D96EDA6A000EDA22DF50F9
:1030480057EC1AF00001642B020E64652EEF18F09D
:1030580030EF18F01DEF18F01200D8C061F0D9C099
:1030680062F0DAC063F0000E0001646F610E64253F
:10307800D96EDA6A000EDA22DF5057EC1AF0000136
:10308800642B020E64654BEF18F04DEF18F03AEF21
:1030980018F012000001646F000E0001656F6551A1
:1030A8006225D96E000E6321DA6EDF50606F6451BD
:1030B8006525D6EC18F00001652B030E656567EFF2
:1030C80018F069EF18F053EF18F01200E1C061F042
:1030D800E2C062F0000E0001636F610E6325D96ED5
:1030E800DA6A000EDA22DF5057EC1AF00001632B7F
:1030F800010E636582EF18F084EF18F071EF18F095
:1031080012000001696F0001695179EC1AF00001A1
:10311800686F692979EC1AF00001676F6751646F6D
:10312800636B68516325656F000E6421666F65C027
:1031380061F066C062F01200000E49EC1AF0000E51
:103148003BEC1AF0000E5EEC19F0000E4AEC19F098
:103158005CC0D9FF5DC0DAFF010EDF6E5AC0D9FF2F
:103168005BC0DAFF010EDF6E80EC17F01200000E74
:1031780049EC1AF0000E3BEC1AF0000E5EEC19F068
:10318800000E4AEC19F05CC0D9FF5DC0DAFF010EF1
:10319800DF6E5AC0D9FF5BC0DAFF010EDF6E9EEC0E
:1031A80017F012000001616F61C0A9FF60C0A8FF9D
:1031B800A69EA69CA684F29E550EA76EAA0EA76E82
:1031C800A682F28EA1A8EBEF18F0EDEF18F0E6EF6B
:1031D80018F0A198A6941200583D30303020593D7F
:1031E8003030300A0D00583D30303020593D3030F5
:1031F8003000416363696F6E0A0D00453200453146
:0B32080000453000434C004200520023
:103214000001646F00016451050DF3CF62F0F4CF37
:1032240063F062C060F063C061F0D89061336033D2
:10323400D890613360336051BB6E12000001646F3B
:1032440000016451050DF3CF62F0F4CF63F062C066
:1032540060F063C061F0D89061336033D89061331B
:1032640060336051BE6E1200000160516203F3CFFF
:1032740064F0F4CF65F060516303F3506527615146
:103284006203F350652764C060F065C061F012000A
:10329400056E0550050DF3CF03F0F4CF04F003C021
:1032A40001F004C002F0D89002320132D890023208
:1032B40001320150BB6E1200056E0550050DF3CFAF
:1032C40003F0F4CF04F003C001F004C002F0D8907E
:1032D40002320132D890023201320150BE6E120025
:1032E4000001666F00016351646F62C065F065C0E0
:1032F40060F06651D6EC18F064C060F000016629F5
:10330400D6EC18F012000001666F00016351646F7F
:1033140062C065F065C060F06651D6EC18F064C018
:1033240060F000016629D6EC18F01200A00E00012E
:10333400626F000E606F6251D6EC18F00001622BD0
:10334400FB0E6265A8EF19F0AAEF19F09BEF19F0D4
:10335400120001500302F3CF05F0F4CF06F0015040
:103364000402F350062602500302F350062605C059
:1033740001F006C002F012007C0ECB6E000EBE6E91
:10338400000EBB6E94949492030ECA6E0C0EBD6E26
:103394000C0EBA6E000ECC6ECA8412000001606F6F
:1033A40000016005D8A4D9EF19F0DBEF19F0DEEFC6
:1033B40019F08380DFEF19F0839012000001606F31
:1033C40000016005D8A4E9EF19F0EBEF19F0EEEF76
:1033D40019F08382EFEF19F0839212000001606FFD
:1033E40000016005D8A4F9EF19F0FBEF19F0FEEF26
:1033F40019F08394FFEF19F0838412000001606FC9
:1034040000016005D8A409EF1AF00BEF1AF00EEFD3
:103414001AF083960FEF1AF0838612000F0EC16E16
:10342400948C948EAC9CAC8AAC98AC84B886AB9CDF
:10343400AB8EAB88670EAF6E1200016E0104D8A488
:1034440026EF1AF028EF1AF02BEF1AF083802CEFF6
:103454001AF083901200016E0104D8A434EF1AF01C
:1034640036EF1AF039EF1AF083823AEF1AF08392AA
:103474001200016E0104D8A442EF1AF044EF1AF0CE
:1034840047EF1AF0839448EF1AF083841200016E18
:103494000104D8A450EF1AF052EF1AF055EF1AF0C5
:1034A400839656EF1AF0838612000001606FACA277
:1034B4005EEF1AF060EF1AF059EF1AF060C0ADFF3A
:1034C40012004C494D49544520454E20580A0D00E0
:1034D400EC00EE00F000F200016EACA274EF1AF002
:1034E40076EF1AF06FEF1AF001C0ADFF1200000181
:1034F400606F60C0A9FFA69EA69CA680A85012007B
:10350400BCEC17F0000E49EC1AF0000E3BEC1AF07C
:103514001200010E49EC1AF0010E3BEC1AF01200F5
:020000040020DA
:08000000FFFFFFFFFFFFFFFF00
:020000040030CA
:0E00000000091F1EFF8181FF0FC00FE00F409F
:00000001FF
